{
  "_format": "hh-sol-artifact-1",
  "contractName": "SimpleIndex",
  "sourceName": "contracts/SimpleIndex.sol",
  "abi": [
    {
      "anonymous": false,
      "inputs": [
        {
          "indexed": true,
          "internalType": "address",
          "name": "previousOwner",
          "type": "address"
        },
        {
          "indexed": true,
          "internalType": "address",
          "name": "newOwner",
          "type": "address"
        }
      ],
      "name": "OwnershipTransferred",
      "type": "event"
    },
    {
      "anonymous": false,
      "inputs": [
        {
          "indexed": false,
          "internalType": "address",
          "name": "account",
          "type": "address"
        }
      ],
      "name": "Paused",
      "type": "event"
    },
    {
      "anonymous": false,
      "inputs": [
        {
          "indexed": false,
          "internalType": "address",
          "name": "account",
          "type": "address"
        }
      ],
      "name": "Unpaused",
      "type": "event"
    },
    {
      "inputs": [
        {
          "internalType": "address",
          "name": "_address",
          "type": "address"
        }
      ],
      "name": "balanceOf",
      "outputs": [
        {
          "internalType": "uint256[]",
          "name": "",
          "type": "uint256[]"
        }
      ],
      "stateMutability": "view",
      "type": "function"
    },
    {
      "inputs": [
        {
          "internalType": "uint256",
          "name": "_amount",
          "type": "uint256"
        }
      ],
      "name": "deposit",
      "outputs": [],
      "stateMutability": "nonpayable",
      "type": "function"
    },
    {
      "inputs": [],
      "name": "owner",
      "outputs": [
        {
          "internalType": "address",
          "name": "",
          "type": "address"
        }
      ],
      "stateMutability": "view",
      "type": "function"
    },
    {
      "inputs": [],
      "name": "pause",
      "outputs": [],
      "stateMutability": "nonpayable",
      "type": "function"
    },
    {
      "inputs": [],
      "name": "paused",
      "outputs": [
        {
          "internalType": "bool",
          "name": "",
          "type": "bool"
        }
      ],
      "stateMutability": "view",
      "type": "function"
    },
    {
      "inputs": [],
      "name": "renounceOwnership",
      "outputs": [],
      "stateMutability": "nonpayable",
      "type": "function"
    },
    {
      "inputs": [
        {
          "internalType": "address",
          "name": "newOwner",
          "type": "address"
        }
      ],
      "name": "transferOwnership",
      "outputs": [],
      "stateMutability": "nonpayable",
      "type": "function"
    },
    {
      "inputs": [],
      "name": "unpause",
      "outputs": [],
      "stateMutability": "nonpayable",
      "type": "function"
    },
    {
      "inputs": [],
      "name": "want",
      "outputs": [
        {
          "internalType": "contract IERC20",
          "name": "",
          "type": "address"
        }
      ],
      "stateMutability": "pure",
      "type": "function"
    },
    {
      "inputs": [],
      "name": "withdrawAll",
      "outputs": [],
      "stateMutability": "nonpayable",
      "type": "function"
    }
  ],
  "bytecode": "0x60806040523480156200001157600080fd5b5062000032620000266200005960201b60201c565b6200006160201b60201c565b60008060146101000a81548160ff0219169083151502179055506001808190555062000125565b600033905090565b60008060009054906101000a900473ffffffffffffffffffffffffffffffffffffffff169050816000806101000a81548173ffffffffffffffffffffffffffffffffffffffff021916908373ffffffffffffffffffffffffffffffffffffffff1602179055508173ffffffffffffffffffffffffffffffffffffffff168173ffffffffffffffffffffffffffffffffffffffff167f8be0079c531659141344cd1fd0a4f28419497f9722a3daafe3b4186f6b6457e060405160405180910390a35050565b612d2780620001356000396000f3fe608060405234801561001057600080fd5b506004361061009e5760003560e01c80638456cb59116100665780638456cb5914610123578063853828b61461012d5780638da5cb5b14610137578063b6b55f2514610155578063f2fde38b146101715761009e565b80631f1fcd51146100a35780633f4ba83a146100c15780635c975abb146100cb57806370a08231146100e9578063715018a614610119575b600080fd5b6100ab61018d565b6040516100b8919061260d565b60405180910390f35b6100c96101a9565b005b6100d361022f565b6040516100e091906125f2565b60405180910390f35b61010360048036038101906100fe9190612191565b610245565b60405161011091906125d0565b60405180910390f35b6101216103d0565b005b61012b610458565b005b6101356104de565b005b61013f610648565b60405161014c9190612555565b60405180910390f35b61016f600480360381019061016a9190612224565b610671565b005b61018b60048036038101906101869190612191565b610788565b005b600073c778417e063141139fce010982780140aa0cd5ab905090565b6101b1610880565b73ffffffffffffffffffffffffffffffffffffffff166101cf610648565b73ffffffffffffffffffffffffffffffffffffffff1614610225576040517f08c379a000000000000000000000000000000000000000000000000000000000815260040161021c906126ca565b60405180910390fd5b61022d610888565b565b60008060149054906101000a900460ff16905090565b60606000600267ffffffffffffffff81111561028a577f4e487b7100000000000000000000000000000000000000000000000000000000600052604160045260246000fd5b6040519080825280602002602001820160405280156102b85781602001602082028036833780820191505090505b509050600260008473ffffffffffffffffffffffffffffffffffffffff1673ffffffffffffffffffffffffffffffffffffffff1681526020019081526020016000205481600081518110610335577f4e487b7100000000000000000000000000000000000000000000000000000000600052603260045260246000fd5b602002602001018181525050600360008473ffffffffffffffffffffffffffffffffffffffff1673ffffffffffffffffffffffffffffffffffffffff16815260200190815260200160002054816001815181106103bb577f4e487b7100000000000000000000000000000000000000000000000000000000600052603260045260246000fd5b60200260200101818152505080915050919050565b6103d8610880565b73ffffffffffffffffffffffffffffffffffffffff166103f6610648565b73ffffffffffffffffffffffffffffffffffffffff161461044c576040517f08c379a0000000000000000000000000000000000000000000000000000000008152600401610443906126ca565b60405180910390fd5b6104566000610929565b565b610460610880565b73ffffffffffffffffffffffffffffffffffffffff1661047e610648565b73ffffffffffffffffffffffffffffffffffffffff16146104d4576040517f08c379a00000000000000000000000000000000000000000000000000000000081526004016104cb906126ca565b60405180910390fd5b6104dc6109ed565b565b6000610528600260003373ffffffffffffffffffffffffffffffffffffffff1673ffffffffffffffffffffffffffffffffffffffff16815260200190815260200160002054610a90565b90506000610574600360003373ffffffffffffffffffffffffffffffffffffffff1673ffffffffffffffffffffffffffffffffffffffff16815260200190815260200160002054610c5b565b90506105ba3361058d8385610e2690919063ffffffff16565b61059561018d565b73ffffffffffffffffffffffffffffffffffffffff16610e3c9092919063ffffffff16565b6000600260003373ffffffffffffffffffffffffffffffffffffffff1673ffffffffffffffffffffffffffffffffffffffff168152602001908152602001600020819055506000600360003373ffffffffffffffffffffffffffffffffffffffff1673ffffffffffffffffffffffffffffffffffffffff168152602001908152602001600020819055505050565b60008060009054906101000a900473ffffffffffffffffffffffffffffffffffffffff16905090565b600260015414156106b7576040517f08c379a00000000000000000000000000000000000000000000000000000000081526004016106ae9061272a565b60405180910390fd5b60026001819055506106c761022f565b15610707576040517f08c379a00000000000000000000000000000000000000000000000000000000081526004016106fe906126aa565b60405180910390fd5b61073b33308361071561018d565b73ffffffffffffffffffffffffffffffffffffffff16610ec2909392919063ffffffff16565b6000610751600283610f4b90919063ffffffff16565b905060006107688284610f6190919063ffffffff16565b905061077382610f77565b61077c816111d1565b50506001808190555050565b610790610880565b73ffffffffffffffffffffffffffffffffffffffff166107ae610648565b73ffffffffffffffffffffffffffffffffffffffff1614610804576040517f08c379a00000000000000000000000000000000000000000000000000000000081526004016107fb906126ca565b60405180910390fd5b600073ffffffffffffffffffffffffffffffffffffffff168173ffffffffffffffffffffffffffffffffffffffff161415610874576040517f08c379a000000000000000000000000000000000000000000000000000000000815260040161086b9061266a565b60405180910390fd5b61087d81610929565b50565b600033905090565b61089061022f565b6108cf576040517f08c379a00000000000000000000000000000000000000000000000000000000081526004016108c69061264a565b60405180910390fd5b60008060146101000a81548160ff0219169083151502179055507f5db9ee0a495bf2e6ff9c91a7834c1ba4fdd244a5e8aa4e537bd38aeae4b073aa610912610880565b60405161091f9190612555565b60405180910390a1565b60008060009054906101000a900473ffffffffffffffffffffffffffffffffffffffff169050816000806101000a81548173ffffffffffffffffffffffffffffffffffffffff021916908373ffffffffffffffffffffffffffffffffffffffff1602179055508173ffffffffffffffffffffffffffffffffffffffff168173ffffffffffffffffffffffffffffffffffffffff167f8be0079c531659141344cd1fd0a4f28419497f9722a3daafe3b4186f6b6457e060405160405180910390a35050565b6109f561022f565b15610a35576040517f08c379a0000000000000000000000000000000000000000000000000000000008152600401610a2c906126aa565b60405180910390fd5b6001600060146101000a81548160ff0219169083151502179055507f62e78cea01bee320cd4e420270b5ea74000d11b0c9f74754ebdbfc544b05a258610a79610880565b604051610a869190612555565b60405180910390a1565b60008073c778417e063141139fce010982780140aa0cd5ab73ffffffffffffffffffffffffffffffffffffffff166370a08231306040518263ffffffff1660e01b8152600401610ae09190612555565b60206040518083038186803b158015610af857600080fd5b505afa158015610b0c573d6000803e3d6000fd5b505050506040513d601f19601f82011682018060405250810190610b30919061224d565b90506000610b6773eb8f08a975ab53e34d8a0330e0d34de942c9592673c778417e063141139fce010982780140aa0cd5ab8661142b565b9050610b9d73eb8f08a975ab53e34d8a0330e0d34de942c9592673c778417e063141139fce010982780140aa0cd5ab8684611909565b600073c778417e063141139fce010982780140aa0cd5ab73ffffffffffffffffffffffffffffffffffffffff166370a08231306040518263ffffffff1660e01b8152600401610bec9190612555565b60206040518083038186803b158015610c0457600080fd5b505afa158015610c18573d6000803e3d6000fd5b505050506040513d601f19601f82011682018060405250810190610c3c919061224d565b9050610c518382610f6190919063ffffffff16565b9350505050919050565b60008073c778417e063141139fce010982780140aa0cd5ab73ffffffffffffffffffffffffffffffffffffffff166370a08231306040518263ffffffff1660e01b8152600401610cab9190612555565b60206040518083038186803b158015610cc357600080fd5b505afa158015610cd7573d6000803e3d6000fd5b505050506040513d601f19601f82011682018060405250810190610cfb919061224d565b90506000610d3273577d296678535e4903d59a4c929b718e1d575e0a73c778417e063141139fce010982780140aa0cd5ab8661142b565b9050610d6873577d296678535e4903d59a4c929b718e1d575e0a73c778417e063141139fce010982780140aa0cd5ab8684611909565b600073c778417e063141139fce010982780140aa0cd5ab73ffffffffffffffffffffffffffffffffffffffff166370a08231306040518263ffffffff1660e01b8152600401610db79190612555565b60206040518083038186803b158015610dcf57600080fd5b505afa158015610de3573d6000803e3d6000fd5b505050506040513d601f19601f82011682018060405250810190610e07919061224d565b9050610e1c8382610f6190919063ffffffff16565b9350505050919050565b60008183610e3491906128c9565b905092915050565b610ebd8363a9059cbb60e01b8484604051602401610e5b9291906125a7565b604051602081830303815290604052907bffffffffffffffffffffffffffffffffffffffffffffffffffffffff19166020820180517bffffffffffffffffffffffffffffffffffffffffffffffffffffffff8381831617835250505050611e3a565b505050565b610f45846323b872dd60e01b858585604051602401610ee393929190612570565b604051602081830303815290604052907bffffffffffffffffffffffffffffffffffffffffffffffffffffffff19166020820180517bffffffffffffffffffffffffffffffffffffffffffffffffffffffff8381831617835250505050611e3a565b50505050565b60008183610f59919061291f565b905092915050565b60008183610f6f9190612950565b905092915050565b600073eb8f08a975ab53e34d8a0330e0d34de942c9592673ffffffffffffffffffffffffffffffffffffffff166370a08231306040518263ffffffff1660e01b8152600401610fc69190612555565b60206040518083038186803b158015610fde57600080fd5b505afa158015610ff2573d6000803e3d6000fd5b505050506040513d601f19601f82011682018060405250810190611016919061224d565b9050600061104d73c778417e063141139fce010982780140aa0cd5ab73eb8f08a975ab53e34d8a0330e0d34de942c959268561142b565b905061108373c778417e063141139fce010982780140aa0cd5ab73eb8f08a975ab53e34d8a0330e0d34de942c959268584611909565b600073eb8f08a975ab53e34d8a0330e0d34de942c9592673ffffffffffffffffffffffffffffffffffffffff166370a08231306040518263ffffffff1660e01b81526004016110d29190612555565b60206040518083038186803b1580156110ea57600080fd5b505afa1580156110fe573d6000803e3d6000fd5b505050506040513d601f19601f82011682018060405250810190611122919061224d565b905061118861113a8483610f6190919063ffffffff16565b600260003373ffffffffffffffffffffffffffffffffffffffff1673ffffffffffffffffffffffffffffffffffffffff16815260200190815260200160002054610e2690919063ffffffff16565b600260003373ffffffffffffffffffffffffffffffffffffffff1673ffffffffffffffffffffffffffffffffffffffff1681526020019081526020016000208190555050505050565b600073577d296678535e4903d59a4c929b718e1d575e0a73ffffffffffffffffffffffffffffffffffffffff166370a08231306040518263ffffffff1660e01b81526004016112209190612555565b60206040518083038186803b15801561123857600080fd5b505afa15801561124c573d6000803e3d6000fd5b505050506040513d601f19601f82011682018060405250810190611270919061224d565b905060006112a773c778417e063141139fce010982780140aa0cd5ab73577d296678535e4903d59a4c929b718e1d575e0a8561142b565b90506112dd73c778417e063141139fce010982780140aa0cd5ab73577d296678535e4903d59a4c929b718e1d575e0a8584611909565b600073577d296678535e4903d59a4c929b718e1d575e0a73ffffffffffffffffffffffffffffffffffffffff166370a08231306040518263ffffffff1660e01b815260040161132c9190612555565b60206040518083038186803b15801561134457600080fd5b505afa158015611358573d6000803e3d6000fd5b505050506040513d601f19601f8201168201806040525081019061137c919061224d565b90506113e26113948483610f6190919063ffffffff16565b600360003373ffffffffffffffffffffffffffffffffffffffff1673ffffffffffffffffffffffffffffffffffffffff16815260200190815260200160002054610e2690919063ffffffff16565b600360003373ffffffffffffffffffffffffffffffffffffffff1673ffffffffffffffffffffffffffffffffffffffff1681526020019081526020016000208190555050505050565b6000606073c778417e063141139fce010982780140aa0cd5ab73ffffffffffffffffffffffffffffffffffffffff168573ffffffffffffffffffffffffffffffffffffffff1614806114bc575073c778417e063141139fce010982780140aa0cd5ab73ffffffffffffffffffffffffffffffffffffffff168473ffffffffffffffffffffffffffffffffffffffff16145b1561162257600267ffffffffffffffff811115611502577f4e487b7100000000000000000000000000000000000000000000000000000000600052604160045260246000fd5b6040519080825280602002602001820160405280156115305781602001602082028036833780820191505090505b509050848160008151811061156e577f4e487b7100000000000000000000000000000000000000000000000000000000600052603260045260246000fd5b602002602001019073ffffffffffffffffffffffffffffffffffffffff16908173ffffffffffffffffffffffffffffffffffffffff168152505083816001815181106115e3577f4e487b7100000000000000000000000000000000000000000000000000000000600052603260045260246000fd5b602002602001019073ffffffffffffffffffffffffffffffffffffffff16908173ffffffffffffffffffffffffffffffffffffffff1681525050611808565b600367ffffffffffffffff811115611663577f4e487b7100000000000000000000000000000000000000000000000000000000600052604160045260246000fd5b6040519080825280602002602001820160405280156116915781602001602082028036833780820191505090505b50905084816000815181106116cf577f4e487b7100000000000000000000000000000000000000000000000000000000600052603260045260246000fd5b602002602001019073ffffffffffffffffffffffffffffffffffffffff16908173ffffffffffffffffffffffffffffffffffffffff168152505073c778417e063141139fce010982780140aa0cd5ab81600181518110611758577f4e487b7100000000000000000000000000000000000000000000000000000000600052603260045260246000fd5b602002602001019073ffffffffffffffffffffffffffffffffffffffff16908173ffffffffffffffffffffffffffffffffffffffff168152505083816002815181106117cd577f4e487b7100000000000000000000000000000000000000000000000000000000600052603260045260246000fd5b602002602001019073ffffffffffffffffffffffffffffffffffffffff16908173ffffffffffffffffffffffffffffffffffffffff16815250505b6000737a250d5630b4cf539739df2c5dacb4c659f2488d73ffffffffffffffffffffffffffffffffffffffff1663d06ca61f85846040518363ffffffff1660e01b815260040161185992919061274a565b60006040518083038186803b15801561187157600080fd5b505afa158015611885573d6000803e3d6000fd5b505050506040513d6000823e3d601f19601f820116820180604052508101906118ae91906121ba565b905080600183516118bf9190612950565b815181106118f6577f4e487b7100000000000000000000000000000000000000000000000000000000600052603260045260246000fd5b6020026020010151925050509392505050565b8373ffffffffffffffffffffffffffffffffffffffff1663095ea7b3737a250d5630b4cf539739df2c5dacb4c659f2488d846040518363ffffffff1660e01b81526004016119589291906125a7565b602060405180830381600087803b15801561197257600080fd5b505af1158015611986573d6000803e3d6000fd5b505050506040513d601f19601f820116820180604052508101906119aa91906121fb565b50606073c778417e063141139fce010982780140aa0cd5ab73ffffffffffffffffffffffffffffffffffffffff168573ffffffffffffffffffffffffffffffffffffffff161480611a3a575073c778417e063141139fce010982780140aa0cd5ab73ffffffffffffffffffffffffffffffffffffffff168473ffffffffffffffffffffffffffffffffffffffff16145b15611ba057600267ffffffffffffffff811115611a80577f4e487b7100000000000000000000000000000000000000000000000000000000600052604160045260246000fd5b604051908082528060200260200182016040528015611aae5781602001602082028036833780820191505090505b5090508481600081518110611aec577f4e487b7100000000000000000000000000000000000000000000000000000000600052603260045260246000fd5b602002602001019073ffffffffffffffffffffffffffffffffffffffff16908173ffffffffffffffffffffffffffffffffffffffff16815250508381600181518110611b61577f4e487b7100000000000000000000000000000000000000000000000000000000600052603260045260246000fd5b602002602001019073ffffffffffffffffffffffffffffffffffffffff16908173ffffffffffffffffffffffffffffffffffffffff1681525050611d86565b600367ffffffffffffffff811115611be1577f4e487b7100000000000000000000000000000000000000000000000000000000600052604160045260246000fd5b604051908082528060200260200182016040528015611c0f5781602001602082028036833780820191505090505b5090508481600081518110611c4d577f4e487b7100000000000000000000000000000000000000000000000000000000600052603260045260246000fd5b602002602001019073ffffffffffffffffffffffffffffffffffffffff16908173ffffffffffffffffffffffffffffffffffffffff168152505073c778417e063141139fce010982780140aa0cd5ab81600181518110611cd6577f4e487b7100000000000000000000000000000000000000000000000000000000600052603260045260246000fd5b602002602001019073ffffffffffffffffffffffffffffffffffffffff16908173ffffffffffffffffffffffffffffffffffffffff16815250508381600281518110611d4b577f4e487b7100000000000000000000000000000000000000000000000000000000600052603260045260246000fd5b602002602001019073ffffffffffffffffffffffffffffffffffffffff16908173ffffffffffffffffffffffffffffffffffffffff16815250505b737a250d5630b4cf539739df2c5dacb4c659f2488d73ffffffffffffffffffffffffffffffffffffffff166338ed173984848430426040518663ffffffff1660e01b8152600401611ddb95949392919061277a565b600060405180830381600087803b158015611df557600080fd5b505af1158015611e09573d6000803e3d6000fd5b505050506040513d6000823e3d601f19601f82011682018060405250810190611e3291906121ba565b505050505050565b6000611e9c826040518060400160405280602081526020017f5361666545524332303a206c6f772d6c6576656c2063616c6c206661696c65648152508573ffffffffffffffffffffffffffffffffffffffff16611f019092919063ffffffff16565b9050600081511115611efc5780806020019051810190611ebc91906121fb565b611efb576040517f08c379a0000000000000000000000000000000000000000000000000000000008152600401611ef29061270a565b60405180910390fd5b5b505050565b6060611f108484600085611f19565b90509392505050565b606082471015611f5e576040517f08c379a0000000000000000000000000000000000000000000000000000000008152600401611f559061268a565b60405180910390fd5b611f678561202d565b611fa6576040517f08c379a0000000000000000000000000000000000000000000000000000000008152600401611f9d906126ea565b60405180910390fd5b6000808673ffffffffffffffffffffffffffffffffffffffff168587604051611fcf919061253e565b60006040518083038185875af1925050503d806000811461200c576040519150601f19603f3d011682016040523d82523d6000602084013e612011565b606091505b5091509150612021828286612040565b92505050949350505050565b600080823b905060008111915050919050565b60608315612050578290506120a0565b6000835111156120635782518084602001fd5b816040517f08c379a00000000000000000000000000000000000000000000000000000000081526004016120979190612628565b60405180910390fd5b9392505050565b60006120ba6120b5846127f9565b6127d4565b905080838252602082019050828560208602820111156120d957600080fd5b60005b8581101561210957816120ef888261217c565b8452602084019350602083019250506001810190506120dc565b5050509392505050565b60008135905061212281612cac565b92915050565b600082601f83011261213957600080fd5b81516121498482602086016120a7565b91505092915050565b60008151905061216181612cc3565b92915050565b60008135905061217681612cda565b92915050565b60008151905061218b81612cda565b92915050565b6000602082840312156121a357600080fd5b60006121b184828501612113565b91505092915050565b6000602082840312156121cc57600080fd5b600082015167ffffffffffffffff8111156121e657600080fd5b6121f284828501612128565b91505092915050565b60006020828403121561220d57600080fd5b600061221b84828501612152565b91505092915050565b60006020828403121561223657600080fd5b600061224484828501612167565b91505092915050565b60006020828403121561225f57600080fd5b600061226d8482850161217c565b91505092915050565b600061228283836122a6565b60208301905092915050565b600061229a8383612520565b60208301905092915050565b6122af81612984565b82525050565b6122be81612984565b82525050565b60006122cf82612845565b6122d9818561288b565b93506122e483612825565b8060005b838110156123155781516122fc8882612276565b975061230783612871565b9250506001810190506122e8565b5085935050505092915050565b600061232d82612850565b612337818561289c565b935061234283612835565b8060005b8381101561237357815161235a888261228e565b97506123658361287e565b925050600181019050612346565b5085935050505092915050565b61238981612996565b82525050565b600061239a8261285b565b6123a481856128ad565b93506123b48185602086016129f0565b80840191505092915050565b6123c9816129cc565b82525050565b60006123da82612866565b6123e481856128b8565b93506123f48185602086016129f0565b6123fd81612ae1565b840191505092915050565b60006124156014836128b8565b915061242082612af2565b602082019050919050565b60006124386026836128b8565b915061244382612b1b565b604082019050919050565b600061245b6026836128b8565b915061246682612b6a565b604082019050919050565b600061247e6010836128b8565b915061248982612bb9565b602082019050919050565b60006124a16020836128b8565b91506124ac82612be2565b602082019050919050565b60006124c4601d836128b8565b91506124cf82612c0b565b602082019050919050565b60006124e7602a836128b8565b91506124f282612c34565b604082019050919050565b600061250a601f836128b8565b915061251582612c83565b602082019050919050565b612529816129c2565b82525050565b612538816129c2565b82525050565b600061254a828461238f565b915081905092915050565b600060208201905061256a60008301846122b5565b92915050565b600060608201905061258560008301866122b5565b61259260208301856122b5565b61259f604083018461252f565b949350505050565b60006040820190506125bc60008301856122b5565b6125c9602083018461252f565b9392505050565b600060208201905081810360008301526125ea8184612322565b905092915050565b60006020820190506126076000830184612380565b92915050565b600060208201905061262260008301846123c0565b92915050565b6000602082019050818103600083015261264281846123cf565b905092915050565b6000602082019050818103600083015261266381612408565b9050919050565b600060208201905081810360008301526126838161242b565b9050919050565b600060208201905081810360008301526126a38161244e565b9050919050565b600060208201905081810360008301526126c381612471565b9050919050565b600060208201905081810360008301526126e381612494565b9050919050565b60006020820190508181036000830152612703816124b7565b9050919050565b60006020820190508181036000830152612723816124da565b9050919050565b60006020820190508181036000830152612743816124fd565b9050919050565b600060408201905061275f600083018561252f565b818103602083015261277181846122c4565b90509392505050565b600060a08201905061278f600083018861252f565b61279c602083018761252f565b81810360408301526127ae81866122c4565b90506127bd60608301856122b5565b6127ca608083018461252f565b9695505050505050565b60006127de6127ef565b90506127ea8282612a23565b919050565b6000604051905090565b600067ffffffffffffffff82111561281457612813612ab2565b5b602082029050602081019050919050565b6000819050602082019050919050565b6000819050602082019050919050565b600081519050919050565b600081519050919050565b600081519050919050565b600081519050919050565b6000602082019050919050565b6000602082019050919050565b600082825260208201905092915050565b600082825260208201905092915050565b600081905092915050565b600082825260208201905092915050565b60006128d4826129c2565b91506128df836129c2565b9250827fffffffffffffffffffffffffffffffffffffffffffffffffffffffffffffffff0382111561291457612913612a54565b5b828201905092915050565b600061292a826129c2565b9150612935836129c2565b92508261294557612944612a83565b5b828204905092915050565b600061295b826129c2565b9150612966836129c2565b92508282101561297957612978612a54565b5b828203905092915050565b600061298f826129a2565b9050919050565b60008115159050919050565b600073ffffffffffffffffffffffffffffffffffffffff82169050919050565b6000819050919050565b60006129d7826129de565b9050919050565b60006129e9826129a2565b9050919050565b60005b83811015612a0e5780820151818401526020810190506129f3565b83811115612a1d576000848401525b50505050565b612a2c82612ae1565b810181811067ffffffffffffffff82111715612a4b57612a4a612ab2565b5b80604052505050565b7f4e487b7100000000000000000000000000000000000000000000000000000000600052601160045260246000fd5b7f4e487b7100000000000000000000000000000000000000000000000000000000600052601260045260246000fd5b7f4e487b7100000000000000000000000000000000000000000000000000000000600052604160045260246000fd5b6000601f19601f8301169050919050565b7f5061757361626c653a206e6f7420706175736564000000000000000000000000600082015250565b7f4f776e61626c653a206e6577206f776e657220697320746865207a65726f206160008201527f6464726573730000000000000000000000000000000000000000000000000000602082015250565b7f416464726573733a20696e73756666696369656e742062616c616e636520666f60008201527f722063616c6c0000000000000000000000000000000000000000000000000000602082015250565b7f5061757361626c653a2070617573656400000000000000000000000000000000600082015250565b7f4f776e61626c653a2063616c6c6572206973206e6f7420746865206f776e6572600082015250565b7f416464726573733a2063616c6c20746f206e6f6e2d636f6e7472616374000000600082015250565b7f5361666545524332303a204552433230206f7065726174696f6e20646964206e60008201527f6f74207375636365656400000000000000000000000000000000000000000000602082015250565b7f5265656e7472616e637947756172643a207265656e7472616e742063616c6c00600082015250565b612cb581612984565b8114612cc057600080fd5b50565b612ccc81612996565b8114612cd757600080fd5b50565b612ce3816129c2565b8114612cee57600080fd5b5056fea2646970667358221220af937b17157318e799b22b3f4ad8f8010ad2fdce13e0a92527df2ff32f919cc164736f6c63430008040033",
  "linkReferences": {},
  "deployedLinkReferences": {}
}